{
  "contractName": "StarNotaryV2",
  "abi": [
    {
      "inputs": [
        {
          "internalType": "string",
          "name": "name_",
          "type": "string"
        },
        {
          "internalType": "string",
          "name": "symbol_",
          "type": "string"
        }
      ],
      "stateMutability": "nonpayable",
      "type": "constructor"
    },
    {
      "inputs": [
        {
          "internalType": "address",
          "name": "sender",
          "type": "address"
        },
        {
          "internalType": "uint256",
          "name": "tokenId",
          "type": "uint256"
        },
        {
          "internalType": "address",
          "name": "owner",
          "type": "address"
        }
      ],
      "name": "ERC721IncorrectOwner",
      "type": "error"
    },
    {
      "inputs": [
        {
          "internalType": "address",
          "name": "operator",
          "type": "address"
        },
        {
          "internalType": "uint256",
          "name": "tokenId",
          "type": "uint256"
        }
      ],
      "name": "ERC721InsufficientApproval",
      "type": "error"
    },
    {
      "inputs": [
        {
          "internalType": "address",
          "name": "approver",
          "type": "address"
        }
      ],
      "name": "ERC721InvalidApprover",
      "type": "error"
    },
    {
      "inputs": [
        {
          "internalType": "address",
          "name": "operator",
          "type": "address"
        }
      ],
      "name": "ERC721InvalidOperator",
      "type": "error"
    },
    {
      "inputs": [
        {
          "internalType": "address",
          "name": "owner",
          "type": "address"
        }
      ],
      "name": "ERC721InvalidOwner",
      "type": "error"
    },
    {
      "inputs": [
        {
          "internalType": "address",
          "name": "receiver",
          "type": "address"
        }
      ],
      "name": "ERC721InvalidReceiver",
      "type": "error"
    },
    {
      "inputs": [
        {
          "internalType": "address",
          "name": "sender",
          "type": "address"
        }
      ],
      "name": "ERC721InvalidSender",
      "type": "error"
    },
    {
      "inputs": [
        {
          "internalType": "uint256",
          "name": "tokenId",
          "type": "uint256"
        }
      ],
      "name": "ERC721NonexistentToken",
      "type": "error"
    },
    {
      "anonymous": false,
      "inputs": [
        {
          "indexed": true,
          "internalType": "address",
          "name": "owner",
          "type": "address"
        },
        {
          "indexed": true,
          "internalType": "address",
          "name": "approved",
          "type": "address"
        },
        {
          "indexed": true,
          "internalType": "uint256",
          "name": "tokenId",
          "type": "uint256"
        }
      ],
      "name": "Approval",
      "type": "event"
    },
    {
      "anonymous": false,
      "inputs": [
        {
          "indexed": true,
          "internalType": "address",
          "name": "owner",
          "type": "address"
        },
        {
          "indexed": true,
          "internalType": "address",
          "name": "operator",
          "type": "address"
        },
        {
          "indexed": false,
          "internalType": "bool",
          "name": "approved",
          "type": "bool"
        }
      ],
      "name": "ApprovalForAll",
      "type": "event"
    },
    {
      "anonymous": false,
      "inputs": [
        {
          "indexed": true,
          "internalType": "address",
          "name": "from",
          "type": "address"
        },
        {
          "indexed": true,
          "internalType": "address",
          "name": "to",
          "type": "address"
        },
        {
          "indexed": true,
          "internalType": "uint256",
          "name": "tokenId",
          "type": "uint256"
        }
      ],
      "name": "Transfer",
      "type": "event"
    },
    {
      "inputs": [
        {
          "internalType": "address",
          "name": "to",
          "type": "address"
        },
        {
          "internalType": "uint256",
          "name": "tokenId",
          "type": "uint256"
        }
      ],
      "name": "approve",
      "outputs": [],
      "stateMutability": "nonpayable",
      "type": "function"
    },
    {
      "inputs": [
        {
          "internalType": "address",
          "name": "owner",
          "type": "address"
        }
      ],
      "name": "balanceOf",
      "outputs": [
        {
          "internalType": "uint256",
          "name": "",
          "type": "uint256"
        }
      ],
      "stateMutability": "view",
      "type": "function",
      "constant": true
    },
    {
      "inputs": [
        {
          "internalType": "uint256",
          "name": "tokenId",
          "type": "uint256"
        }
      ],
      "name": "getApproved",
      "outputs": [
        {
          "internalType": "address",
          "name": "",
          "type": "address"
        }
      ],
      "stateMutability": "view",
      "type": "function",
      "constant": true
    },
    {
      "inputs": [
        {
          "internalType": "address",
          "name": "owner",
          "type": "address"
        },
        {
          "internalType": "address",
          "name": "operator",
          "type": "address"
        }
      ],
      "name": "isApprovedForAll",
      "outputs": [
        {
          "internalType": "bool",
          "name": "",
          "type": "bool"
        }
      ],
      "stateMutability": "view",
      "type": "function",
      "constant": true
    },
    {
      "inputs": [],
      "name": "name",
      "outputs": [
        {
          "internalType": "string",
          "name": "",
          "type": "string"
        }
      ],
      "stateMutability": "view",
      "type": "function",
      "constant": true
    },
    {
      "inputs": [
        {
          "internalType": "uint256",
          "name": "tokenId",
          "type": "uint256"
        }
      ],
      "name": "ownerOf",
      "outputs": [
        {
          "internalType": "address",
          "name": "",
          "type": "address"
        }
      ],
      "stateMutability": "view",
      "type": "function",
      "constant": true
    },
    {
      "inputs": [
        {
          "internalType": "address",
          "name": "from",
          "type": "address"
        },
        {
          "internalType": "address",
          "name": "to",
          "type": "address"
        },
        {
          "internalType": "uint256",
          "name": "tokenId",
          "type": "uint256"
        }
      ],
      "name": "safeTransferFrom",
      "outputs": [],
      "stateMutability": "nonpayable",
      "type": "function"
    },
    {
      "inputs": [
        {
          "internalType": "address",
          "name": "from",
          "type": "address"
        },
        {
          "internalType": "address",
          "name": "to",
          "type": "address"
        },
        {
          "internalType": "uint256",
          "name": "tokenId",
          "type": "uint256"
        },
        {
          "internalType": "bytes",
          "name": "data",
          "type": "bytes"
        }
      ],
      "name": "safeTransferFrom",
      "outputs": [],
      "stateMutability": "nonpayable",
      "type": "function"
    },
    {
      "inputs": [
        {
          "internalType": "address",
          "name": "operator",
          "type": "address"
        },
        {
          "internalType": "bool",
          "name": "approved",
          "type": "bool"
        }
      ],
      "name": "setApprovalForAll",
      "outputs": [],
      "stateMutability": "nonpayable",
      "type": "function"
    },
    {
      "inputs": [
        {
          "internalType": "uint256",
          "name": "",
          "type": "uint256"
        }
      ],
      "name": "starsForSale",
      "outputs": [
        {
          "internalType": "uint256",
          "name": "",
          "type": "uint256"
        }
      ],
      "stateMutability": "view",
      "type": "function",
      "constant": true
    },
    {
      "inputs": [
        {
          "internalType": "bytes4",
          "name": "interfaceId",
          "type": "bytes4"
        }
      ],
      "name": "supportsInterface",
      "outputs": [
        {
          "internalType": "bool",
          "name": "",
          "type": "bool"
        }
      ],
      "stateMutability": "view",
      "type": "function",
      "constant": true
    },
    {
      "inputs": [],
      "name": "symbol",
      "outputs": [
        {
          "internalType": "string",
          "name": "",
          "type": "string"
        }
      ],
      "stateMutability": "view",
      "type": "function",
      "constant": true
    },
    {
      "inputs": [
        {
          "internalType": "uint256",
          "name": "",
          "type": "uint256"
        }
      ],
      "name": "tokenIdToStarInfo",
      "outputs": [
        {
          "internalType": "string",
          "name": "name",
          "type": "string"
        }
      ],
      "stateMutability": "view",
      "type": "function",
      "constant": true
    },
    {
      "inputs": [
        {
          "internalType": "uint256",
          "name": "tokenId",
          "type": "uint256"
        }
      ],
      "name": "tokenURI",
      "outputs": [
        {
          "internalType": "string",
          "name": "",
          "type": "string"
        }
      ],
      "stateMutability": "view",
      "type": "function",
      "constant": true
    },
    {
      "inputs": [
        {
          "internalType": "address",
          "name": "from",
          "type": "address"
        },
        {
          "internalType": "address",
          "name": "to",
          "type": "address"
        },
        {
          "internalType": "uint256",
          "name": "tokenId",
          "type": "uint256"
        }
      ],
      "name": "transferFrom",
      "outputs": [],
      "stateMutability": "nonpayable",
      "type": "function"
    },
    {
      "inputs": [
        {
          "internalType": "string",
          "name": "_name",
          "type": "string"
        },
        {
          "internalType": "uint256",
          "name": "_tokenId",
          "type": "uint256"
        }
      ],
      "name": "createStar",
      "outputs": [],
      "stateMutability": "nonpayable",
      "type": "function"
    },
    {
      "inputs": [
        {
          "internalType": "uint256",
          "name": "_tokenId",
          "type": "uint256"
        },
        {
          "internalType": "uint256",
          "name": "_price",
          "type": "uint256"
        }
      ],
      "name": "putStarUpForSale",
      "outputs": [],
      "stateMutability": "nonpayable",
      "type": "function"
    },
    {
      "inputs": [
        {
          "internalType": "uint256",
          "name": "_tokenId",
          "type": "uint256"
        }
      ],
      "name": "buyStar",
      "outputs": [],
      "stateMutability": "payable",
      "type": "function",
      "payable": true
    },
    {
      "inputs": [
        {
          "internalType": "uint256",
          "name": "_tokenId",
          "type": "uint256"
        }
      ],
      "name": "lookUptokenIdToStarInfo",
      "outputs": [
        {
          "components": [
            {
              "internalType": "string",
              "name": "name",
              "type": "string"
            }
          ],
          "internalType": "struct StarNotaryV2.Star",
          "name": "",
          "type": "tuple"
        }
      ],
      "stateMutability": "view",
      "type": "function",
      "constant": true
    },
    {
      "inputs": [
        {
          "internalType": "uint256",
          "name": "_tokenId1",
          "type": "uint256"
        },
        {
          "internalType": "uint256",
          "name": "_tokenId2",
          "type": "uint256"
        }
      ],
      "name": "exchangeStars",
      "outputs": [],
      "stateMutability": "nonpayable",
      "type": "function"
    },
    {
      "inputs": [
        {
          "internalType": "address",
          "name": "_to1",
          "type": "address"
        },
        {
          "internalType": "uint256",
          "name": "_tokenId",
          "type": "uint256"
        }
      ],
      "name": "transferStar",
      "outputs": [],
      "stateMutability": "nonpayable",
      "type": "function"
    }
  ],
  "bytecode": "0x60806040525f60065534801562000014575f80fd5b50604051620031a8380380620031a883398181016040528101906200003a919062000212565b8181815f90816200004c9190620004cc565b5080600190816200005e9190620004cc565b5050508160079081620000729190620004cc565b508060089081620000849190620004cc565b505050620005b0565b5f604051905090565b5f80fd5b5f80fd5b5f80fd5b5f80fd5b5f601f19601f8301169050919050565b7f4e487b71000000000000000000000000000000000000000000000000000000005f52604160045260245ffd5b620000ee82620000a6565b810181811067ffffffffffffffff8211171562000110576200010f620000b6565b5b80604052505050565b5f620001246200008d565b9050620001328282620000e3565b919050565b5f67ffffffffffffffff821115620001545762000153620000b6565b5b6200015f82620000a6565b9050602081019050919050565b5f5b838110156200018b5780820151818401526020810190506200016e565b5f8484015250505050565b5f620001ac620001a68462000137565b62000119565b905082815260208101848484011115620001cb57620001ca620000a2565b5b620001d88482856200016c565b509392505050565b5f82601f830112620001f757620001f66200009e565b5b81516200020984826020860162000196565b91505092915050565b5f80604083850312156200022b576200022a62000096565b5b5f83015167ffffffffffffffff8111156200024b576200024a6200009a565b5b6200025985828601620001e0565b925050602083015167ffffffffffffffff8111156200027d576200027c6200009a565b5b6200028b85828601620001e0565b9150509250929050565b5f81519050919050565b7f4e487b71000000000000000000000000000000000000000000000000000000005f52602260045260245ffd5b5f6002820490506001821680620002e457607f821691505b602082108103620002fa57620002f96200029f565b5b50919050565b5f819050815f5260205f209050919050565b5f6020601f8301049050919050565b5f82821b905092915050565b5f600883026200035e7fffffffffffffffffffffffffffffffffffffffffffffffffffffffffffffffff8262000321565b6200036a868362000321565b95508019841693508086168417925050509392505050565b5f819050919050565b5f819050919050565b5f620003b4620003ae620003a88462000382565b6200038b565b62000382565b9050919050565b5f819050919050565b620003cf8362000394565b620003e7620003de82620003bb565b8484546200032d565b825550505050565b5f90565b620003fd620003ef565b6200040a818484620003c4565b505050565b5b818110156200043157620004255f82620003f3565b60018101905062000410565b5050565b601f82111562000480576200044a8162000300565b620004558462000312565b8101602085101562000465578190505b6200047d620004748562000312565b8301826200040f565b50505b505050565b5f82821c905092915050565b5f620004a25f198460080262000485565b1980831691505092915050565b5f620004bc838362000491565b9150826002028217905092915050565b620004d78262000295565b67ffffffffffffffff811115620004f357620004f2620000b6565b5b620004ff8254620002cc565b6200050c82828562000435565b5f60209050601f83116001811462000542575f84156200052d578287015190505b620005398582620004af565b865550620005a8565b601f198416620005528662000300565b5f5b828110156200057b5784890151825560018201915060208501945060208101905062000554565b868310156200059b578489015162000597601f89168262000491565b8355505b6001600288020188555050505b505050505050565b612bea80620005be5f395ff3fe608060405260043610610129575f3560e01c806342842e0e116100aa578063a22cb4651161006e578063a22cb465146103f5578063b88d4fde1461041d578063c87b56dd14610445578063d7830ccb14610481578063e7152a5c146104bd578063e985e9c5146104e557610129565b806342842e0e146103035780636352211e1461032b57806370a082311461036757806395d89b41146103a35780639697c0a1146103cd57610129565b806315e0afa5116100f157806315e0afa5146102335780631967fd981461025b57806323b872dd146102975780632f1c34ef146102bf578063316a4361146102db57610129565b806301ffc9a71461012d5780630564b1301461016957806306fdde03146101a5578063081812fc146101cf578063095ea7b31461020b575b5f80fd5b348015610138575f80fd5b50610153600480360381019061014e9190611d4f565b610521565b6040516101609190611d94565b60405180910390f35b348015610174575f80fd5b5061018f600480360381019061018a9190611de0565b610602565b60405161019c9190611e1a565b60405180910390f35b3480156101b0575f80fd5b506101b9610617565b6040516101c69190611ebd565b60405180910390f35b3480156101da575f80fd5b506101f560048036038101906101f09190611de0565b6106a6565b6040516102029190611f1c565b60405180910390f35b348015610216575f80fd5b50610231600480360381019061022c9190611f5f565b6106c1565b005b34801561023e575f80fd5b5061025960048036038101906102549190611f9d565b6106d7565b005b348015610266575f80fd5b50610281600480360381019061027c9190611de0565b6107af565b60405161028e9190611ebd565b60405180910390f35b3480156102a2575f80fd5b506102bd60048036038101906102b89190611fdb565b61084f565b005b6102d960048036038101906102d49190611de0565b61094e565b005b3480156102e6575f80fd5b5061030160048036038101906102fc9190611f9d565b610acb565b005b34801561030e575f80fd5b5061032960048036038101906103249190611fdb565b610b5b565b005b348015610336575f80fd5b50610351600480360381019061034c9190611de0565b610b7a565b60405161035e9190611f1c565b60405180910390f35b348015610372575f80fd5b5061038d6004803603810190610388919061202b565b610b8b565b60405161039a9190611e1a565b60405180910390f35b3480156103ae575f80fd5b506103b7610c41565b6040516103c49190611ebd565b60405180910390f35b3480156103d8575f80fd5b506103f360048036038101906103ee9190612182565b610cd1565b005b348015610400575f80fd5b5061041b60048036038101906104169190612206565b610d32565b005b348015610428575f80fd5b50610443600480360381019061043e91906122e2565b610d48565b005b348015610450575f80fd5b5061046b60048036038101906104669190611de0565b610d65565b6040516104789190611ebd565b60405180910390f35b34801561048c575f80fd5b506104a760048036038101906104a29190611de0565b610dcb565b6040516104b491906123d1565b60405180910390f35b3480156104c8575f80fd5b506104e360048036038101906104de9190611f5f565b610e85565b005b3480156104f0575f80fd5b5061050b600480360381019061050691906123f1565b610f0a565b6040516105189190611d94565b60405180910390f35b5f7f80ac58cd000000000000000000000000000000000000000000000000000000007bffffffffffffffffffffffffffffffffffffffffffffffffffffffff1916827bffffffffffffffffffffffffffffffffffffffffffffffffffffffff191614806105eb57507f5b5e139f000000000000000000000000000000000000000000000000000000007bffffffffffffffffffffffffffffffffffffffffffffffffffffffff1916827bffffffffffffffffffffffffffffffffffffffffffffffffffffffff1916145b806105fb57506105fa82610f98565b5b9050919050565b600a602052805f5260405f205f915090505481565b60605f80546106259061245c565b80601f01602080910402602001604051908101604052809291908181526020018280546106519061245c565b801561069c5780601f106106735761010080835404028352916020019161069c565b820191905f5260205f20905b81548152906001019060200180831161067f57829003601f168201915b5050505050905090565b5f6106b082611001565b506106ba82611087565b9050919050565b6106d382826106ce6110c0565b6110c7565b5050565b5f6106e183610b7a565b90505f6106ed83610b7a565b90508173ffffffffffffffffffffffffffffffffffffffff163373ffffffffffffffffffffffffffffffffffffffff16148061075457508073ffffffffffffffffffffffffffffffffffffffff163373ffffffffffffffffffffffffffffffffffffffff16145b610793576040517f08c379a000000000000000000000000000000000000000000000000000000000815260040161078a906124d6565b60405180910390fd5b61079e82828661084f565b6107a981838561084f565b50505050565b6009602052805f5260405f205f91509050805f0180546107ce9061245c565b80601f01602080910402602001604051908101604052809291908181526020018280546107fa9061245c565b80156108455780601f1061081c57610100808354040283529160200191610845565b820191905f5260205f20905b81548152906001019060200180831161082857829003601f168201915b5050505050905081565b5f73ffffffffffffffffffffffffffffffffffffffff168273ffffffffffffffffffffffffffffffffffffffff16036108bf575f6040517f64a0ae920000000000000000000000000000000000000000000000000000000081526004016108b69190611f1c565b60405180910390fd5b5f6108d283836108cd6110c0565b6110d9565b90508373ffffffffffffffffffffffffffffffffffffffff168173ffffffffffffffffffffffffffffffffffffffff1614610948578382826040517f64283d7b00000000000000000000000000000000000000000000000000000000815260040161093f939291906124f4565b60405180910390fd5b50505050565b5f600a5f8381526020019081526020015f2054116109a1576040517f08c379a000000000000000000000000000000000000000000000000000000000815260040161099890612573565b60405180910390fd5b5f600a5f8381526020019081526020015f205490505f6109c083610b7a565b9050813411610a04576040517f08c379a00000000000000000000000000000000000000000000000000000000081526004016109fb906125db565b60405180910390fd5b610a0f81338561084f565b8073ffffffffffffffffffffffffffffffffffffffff166108fc8390811502906040515f60405180830381858888f19350505050158015610a52573d5f803e3d5ffd5b505f600a5f8581526020019081526020015f208190555081341115610ac6575f3390508073ffffffffffffffffffffffffffffffffffffffff166108fc8434610a9b9190612626565b90811502906040515f60405180830381858888f19350505050158015610ac3573d5f803e3d5ffd5b50505b505050565b3373ffffffffffffffffffffffffffffffffffffffff16610aeb83610b7a565b73ffffffffffffffffffffffffffffffffffffffff1614610b41576040517f08c379a0000000000000000000000000000000000000000000000000000000008152600401610b38906126c9565b60405180910390fd5b80600a5f8481526020019081526020015f20819055505050565b610b7583838360405180602001604052805f815250610d48565b505050565b5f610b8482611001565b9050919050565b5f8073ffffffffffffffffffffffffffffffffffffffff168273ffffffffffffffffffffffffffffffffffffffff1603610bfc575f6040517f89c62b64000000000000000000000000000000000000000000000000000000008152600401610bf39190611f1c565b60405180910390fd5b60035f8373ffffffffffffffffffffffffffffffffffffffff1673ffffffffffffffffffffffffffffffffffffffff1681526020019081526020015f20549050919050565b606060018054610c509061245c565b80601f0160208091040260200160405190810160405280929190818152602001828054610c7c9061245c565b8015610cc75780601f10610c9e57610100808354040283529160200191610cc7565b820191905f5260205f20905b815481529060010190602001808311610caa57829003601f168201915b5050505050905090565b5f60405180602001604052808481525090508060095f8481526020019081526020015f205f820151815f019081610d089190612884565b50905050610d1633836112e4565b60065f815480929190610d2890612953565b9190505550505050565b610d44610d3d6110c0565b8383611301565b5050565b610d5384848461084f565b610d5f8484848461146a565b50505050565b6060610d7082611001565b505f610d7a61161c565b90505f815111610d985760405180602001604052805f815250610dc3565b80610da284611632565b604051602001610db39291906129d4565b6040516020818303038152906040525b915050919050565b610dd3611cd6565b60095f8381526020019081526020015f206040518060200160405290815f82018054610dfe9061245c565b80601f0160208091040260200160405190810160405280929190818152602001828054610e2a9061245c565b8015610e755780601f10610e4c57610100808354040283529160200191610e75565b820191905f5260205f20905b815481529060010190602001808311610e5857829003601f168201915b5050505050815250509050919050565b3373ffffffffffffffffffffffffffffffffffffffff16610ea582610b7a565b73ffffffffffffffffffffffffffffffffffffffff1614610efb576040517f08c379a0000000000000000000000000000000000000000000000000000000008152600401610ef290612a67565b60405180910390fd5b610f0633838361084f565b5050565b5f60055f8473ffffffffffffffffffffffffffffffffffffffff1673ffffffffffffffffffffffffffffffffffffffff1681526020019081526020015f205f8373ffffffffffffffffffffffffffffffffffffffff1673ffffffffffffffffffffffffffffffffffffffff1681526020019081526020015f205f9054906101000a900460ff16905092915050565b5f7f01ffc9a7000000000000000000000000000000000000000000000000000000007bffffffffffffffffffffffffffffffffffffffffffffffffffffffff1916827bffffffffffffffffffffffffffffffffffffffffffffffffffffffff1916149050919050565b5f8061100c836116fc565b90505f73ffffffffffffffffffffffffffffffffffffffff168173ffffffffffffffffffffffffffffffffffffffff160361107e57826040517f7e2732890000000000000000000000000000000000000000000000000000000081526004016110759190611e1a565b60405180910390fd5b80915050919050565b5f60045f8381526020019081526020015f205f9054906101000a900473ffffffffffffffffffffffffffffffffffffffff169050919050565b5f33905090565b6110d48383836001611735565b505050565b5f806110e4846116fc565b90505f73ffffffffffffffffffffffffffffffffffffffff168373ffffffffffffffffffffffffffffffffffffffff1614611125576111248184866118f4565b5b5f73ffffffffffffffffffffffffffffffffffffffff168173ffffffffffffffffffffffffffffffffffffffff16146111b0576111645f855f80611735565b600160035f8373ffffffffffffffffffffffffffffffffffffffff1673ffffffffffffffffffffffffffffffffffffffff1681526020019081526020015f205f82825403925050819055505b5f73ffffffffffffffffffffffffffffffffffffffff168573ffffffffffffffffffffffffffffffffffffffff161461122f57600160035f8773ffffffffffffffffffffffffffffffffffffffff1673ffffffffffffffffffffffffffffffffffffffff1681526020019081526020015f205f82825401925050819055505b8460025f8681526020019081526020015f205f6101000a81548173ffffffffffffffffffffffffffffffffffffffff021916908373ffffffffffffffffffffffffffffffffffffffff160217905550838573ffffffffffffffffffffffffffffffffffffffff168273ffffffffffffffffffffffffffffffffffffffff167fddf252ad1be2c89b69c2b068fc378daa952ba7f163c4a11628f55a4df523b3ef60405160405180910390a4809150509392505050565b6112fd828260405180602001604052805f8152506119b7565b5050565b5f73ffffffffffffffffffffffffffffffffffffffff168273ffffffffffffffffffffffffffffffffffffffff160361137157816040517f5b08ba180000000000000000000000000000000000000000000000000000000081526004016113689190611f1c565b60405180910390fd5b8060055f8573ffffffffffffffffffffffffffffffffffffffff1673ffffffffffffffffffffffffffffffffffffffff1681526020019081526020015f205f8473ffffffffffffffffffffffffffffffffffffffff1673ffffffffffffffffffffffffffffffffffffffff1681526020019081526020015f205f6101000a81548160ff0219169083151502179055508173ffffffffffffffffffffffffffffffffffffffff168373ffffffffffffffffffffffffffffffffffffffff167f17307eab39ab6107e8899845ad3d59bd9653f200f220920489ca2b5937696c318360405161145d9190611d94565b60405180910390a3505050565b5f8373ffffffffffffffffffffffffffffffffffffffff163b1115611616578273ffffffffffffffffffffffffffffffffffffffff1663150b7a026114ad6110c0565b8685856040518563ffffffff1660e01b81526004016114cf9493929190612ad7565b6020604051808303815f875af192505050801561150a57506040513d601f19601f820116820180604052508101906115079190612b35565b60015b61158b573d805f8114611538576040519150601f19603f3d011682016040523d82523d5f602084013e61153d565b606091505b505f81510361158357836040517f64a0ae9200000000000000000000000000000000000000000000000000000000815260040161157a9190611f1c565b60405180910390fd5b805181602001fd5b63150b7a0260e01b7bffffffffffffffffffffffffffffffffffffffffffffffffffffffff1916817bffffffffffffffffffffffffffffffffffffffffffffffffffffffff19161461161457836040517f64a0ae9200000000000000000000000000000000000000000000000000000000815260040161160b9190611f1c565b60405180910390fd5b505b50505050565b606060405180602001604052805f815250905090565b60605f6001611640846119d2565b0190505f8167ffffffffffffffff81111561165e5761165d61205e565b5b6040519080825280601f01601f1916602001820160405280156116905781602001600182028036833780820191505090505b5090505f82602001820190505b6001156116f1578080600190039150507f3031323334353637383961626364656600000000000000000000000000000000600a86061a8153600a85816116e6576116e5612b60565b5b0494505f850361169d575b819350505050919050565b5f60025f8381526020019081526020015f205f9054906101000a900473ffffffffffffffffffffffffffffffffffffffff169050919050565b808061176d57505f73ffffffffffffffffffffffffffffffffffffffff168273ffffffffffffffffffffffffffffffffffffffff1614155b1561189f575f61177c84611001565b90505f73ffffffffffffffffffffffffffffffffffffffff168373ffffffffffffffffffffffffffffffffffffffff16141580156117e657508273ffffffffffffffffffffffffffffffffffffffff168173ffffffffffffffffffffffffffffffffffffffff1614155b80156117f957506117f78184610f0a565b155b1561183b57826040517fa9fbf51f0000000000000000000000000000000000000000000000000000000081526004016118329190611f1c565b60405180910390fd5b811561189d57838573ffffffffffffffffffffffffffffffffffffffff168273ffffffffffffffffffffffffffffffffffffffff167f8c5be1e5ebec7d5bd14f71427d1e84f3dd0314c0f7b2291e5b200ac8c7c3b92560405160405180910390a45b505b8360045f8581526020019081526020015f205f6101000a81548173ffffffffffffffffffffffffffffffffffffffff021916908373ffffffffffffffffffffffffffffffffffffffff16021790555050505050565b6118ff838383611b23565b6119b2575f73ffffffffffffffffffffffffffffffffffffffff168373ffffffffffffffffffffffffffffffffffffffff160361197357806040517f7e27328900000000000000000000000000000000000000000000000000000000815260040161196a9190611e1a565b60405180910390fd5b81816040517f177e802f0000000000000000000000000000000000000000000000000000000081526004016119a9929190612b8d565b60405180910390fd5b505050565b6119c18383611be3565b6119cd5f84848461146a565b505050565b5f805f90507a184f03e93ff9f4daa797ed6e38ed64bf6a1f0100000000000000008310611a2e577a184f03e93ff9f4daa797ed6e38ed64bf6a1f0100000000000000008381611a2457611a23612b60565b5b0492506040810190505b6d04ee2d6d415b85acef81000000008310611a6b576d04ee2d6d415b85acef81000000008381611a6157611a60612b60565b5b0492506020810190505b662386f26fc100008310611a9a57662386f26fc100008381611a9057611a8f612b60565b5b0492506010810190505b6305f5e1008310611ac3576305f5e1008381611ab957611ab8612b60565b5b0492506008810190505b6127108310611ae8576127108381611ade57611add612b60565b5b0492506004810190505b60648310611b0b5760648381611b0157611b00612b60565b5b0492506002810190505b600a8310611b1a576001810190505b80915050919050565b5f8073ffffffffffffffffffffffffffffffffffffffff168373ffffffffffffffffffffffffffffffffffffffff1614158015611bda57508273ffffffffffffffffffffffffffffffffffffffff168473ffffffffffffffffffffffffffffffffffffffff161480611b9b5750611b9a8484610f0a565b5b80611bd957508273ffffffffffffffffffffffffffffffffffffffff16611bc183611087565b73ffffffffffffffffffffffffffffffffffffffff16145b5b90509392505050565b5f73ffffffffffffffffffffffffffffffffffffffff168273ffffffffffffffffffffffffffffffffffffffff1603611c53575f6040517f64a0ae92000000000000000000000000000000000000000000000000000000008152600401611c4a9190611f1c565b60405180910390fd5b5f611c5f83835f6110d9565b90505f73ffffffffffffffffffffffffffffffffffffffff168173ffffffffffffffffffffffffffffffffffffffff1614611cd1575f6040517f73c6ac6e000000000000000000000000000000000000000000000000000000008152600401611cc89190611f1c565b60405180910390fd5b505050565b6040518060200160405280606081525090565b5f604051905090565b5f80fd5b5f80fd5b5f7fffffffff0000000000000000000000000000000000000000000000000000000082169050919050565b611d2e81611cfa565b8114611d38575f80fd5b50565b5f81359050611d4981611d25565b92915050565b5f60208284031215611d6457611d63611cf2565b5b5f611d7184828501611d3b565b91505092915050565b5f8115159050919050565b611d8e81611d7a565b82525050565b5f602082019050611da75f830184611d85565b92915050565b5f819050919050565b611dbf81611dad565b8114611dc9575f80fd5b50565b5f81359050611dda81611db6565b92915050565b5f60208284031215611df557611df4611cf2565b5b5f611e0284828501611dcc565b91505092915050565b611e1481611dad565b82525050565b5f602082019050611e2d5f830184611e0b565b92915050565b5f81519050919050565b5f82825260208201905092915050565b5f5b83811015611e6a578082015181840152602081019050611e4f565b5f8484015250505050565b5f601f19601f8301169050919050565b5f611e8f82611e33565b611e998185611e3d565b9350611ea9818560208601611e4d565b611eb281611e75565b840191505092915050565b5f6020820190508181035f830152611ed58184611e85565b905092915050565b5f73ffffffffffffffffffffffffffffffffffffffff82169050919050565b5f611f0682611edd565b9050919050565b611f1681611efc565b82525050565b5f602082019050611f2f5f830184611f0d565b92915050565b611f3e81611efc565b8114611f48575f80fd5b50565b5f81359050611f5981611f35565b92915050565b5f8060408385031215611f7557611f74611cf2565b5b5f611f8285828601611f4b565b9250506020611f9385828601611dcc565b9150509250929050565b5f8060408385031215611fb357611fb2611cf2565b5b5f611fc085828601611dcc565b9250506020611fd185828601611dcc565b9150509250929050565b5f805f60608486031215611ff257611ff1611cf2565b5b5f611fff86828701611f4b565b935050602061201086828701611f4b565b925050604061202186828701611dcc565b9150509250925092565b5f602082840312156120405761203f611cf2565b5b5f61204d84828501611f4b565b91505092915050565b5f80fd5b5f80fd5b7f4e487b71000000000000000000000000000000000000000000000000000000005f52604160045260245ffd5b61209482611e75565b810181811067ffffffffffffffff821117156120b3576120b261205e565b5b80604052505050565b5f6120c5611ce9565b90506120d1828261208b565b919050565b5f67ffffffffffffffff8211156120f0576120ef61205e565b5b6120f982611e75565b9050602081019050919050565b828183375f83830152505050565b5f612126612121846120d6565b6120bc565b9050828152602081018484840111156121425761214161205a565b5b61214d848285612106565b509392505050565b5f82601f83011261216957612168612056565b5b8135612179848260208601612114565b91505092915050565b5f806040838503121561219857612197611cf2565b5b5f83013567ffffffffffffffff8111156121b5576121b4611cf6565b5b6121c185828601612155565b92505060206121d285828601611dcc565b9150509250929050565b6121e581611d7a565b81146121ef575f80fd5b50565b5f81359050612200816121dc565b92915050565b5f806040838503121561221c5761221b611cf2565b5b5f61222985828601611f4b565b925050602061223a858286016121f2565b9150509250929050565b5f67ffffffffffffffff82111561225e5761225d61205e565b5b61226782611e75565b9050602081019050919050565b5f61228661228184612244565b6120bc565b9050828152602081018484840111156122a2576122a161205a565b5b6122ad848285612106565b509392505050565b5f82601f8301126122c9576122c8612056565b5b81356122d9848260208601612274565b91505092915050565b5f805f80608085870312156122fa576122f9611cf2565b5b5f61230787828801611f4b565b945050602061231887828801611f4b565b935050604061232987828801611dcc565b925050606085013567ffffffffffffffff81111561234a57612349611cf6565b5b612356878288016122b5565b91505092959194509250565b5f82825260208201905092915050565b5f61237c82611e33565b6123868185612362565b9350612396818560208601611e4d565b61239f81611e75565b840191505092915050565b5f602083015f8301518482035f8601526123c48282612372565b9150508091505092915050565b5f6020820190508181035f8301526123e981846123aa565b905092915050565b5f806040838503121561240757612406611cf2565b5b5f61241485828601611f4b565b925050602061242585828601611f4b565b9150509250929050565b7f4e487b71000000000000000000000000000000000000000000000000000000005f52602260045260245ffd5b5f600282049050600182168061247357607f821691505b6020821081036124865761248561242f565b5b50919050565b7f596f7520646f206e6f74206f776e2074686973207374617200000000000000005f82015250565b5f6124c0601883611e3d565b91506124cb8261248c565b602082019050919050565b5f6020820190508181035f8301526124ed816124b4565b9050919050565b5f6060820190506125075f830186611f0d565b6125146020830185611e0b565b6125216040830184611f0d565b949350505050565b7f54686520537461722073686f756c6420626520757020666f722073616c6500005f82015250565b5f61255d601e83611e3d565b915061256882612529565b602082019050919050565b5f6020820190508181035f83015261258a81612551565b9050919050565b7f596f75206e65656420746f206861766520656e6f7567682045746865720000005f82015250565b5f6125c5601d83611e3d565b91506125d082612591565b602082019050919050565b5f6020820190508181035f8301526125f2816125b9565b9050919050565b7f4e487b71000000000000000000000000000000000000000000000000000000005f52601160045260245ffd5b5f61263082611dad565b915061263b83611dad565b9250828203905081811115612653576126526125f9565b5b92915050565b7f596f752063616e27742073656c6c20746865205374617220796f7520646f6e275f8201527f74206f776e656400000000000000000000000000000000000000000000000000602082015250565b5f6126b3602783611e3d565b91506126be82612659565b604082019050919050565b5f6020820190508181035f8301526126e0816126a7565b9050919050565b5f819050815f5260205f209050919050565b5f6020601f8301049050919050565b5f82821b905092915050565b5f600883026127437fffffffffffffffffffffffffffffffffffffffffffffffffffffffffffffffff82612708565b61274d8683612708565b95508019841693508086168417925050509392505050565b5f819050919050565b5f61278861278361277e84611dad565b612765565b611dad565b9050919050565b5f819050919050565b6127a18361276e565b6127b56127ad8261278f565b848454612714565b825550505050565b5f90565b6127c96127bd565b6127d4818484612798565b505050565b5b818110156127f7576127ec5f826127c1565b6001810190506127da565b5050565b601f82111561283c5761280d816126e7565b612816846126f9565b81016020851015612825578190505b612839612831856126f9565b8301826127d9565b50505b505050565b5f82821c905092915050565b5f61285c5f1984600802612841565b1980831691505092915050565b5f612874838361284d565b9150826002028217905092915050565b61288d82611e33565b67ffffffffffffffff8111156128a6576128a561205e565b5b6128b0825461245c565b6128bb8282856127fb565b5f60209050601f8311600181146128ec575f84156128da578287015190505b6128e48582612869565b86555061294b565b601f1984166128fa866126e7565b5f5b82811015612921578489015182556001820191506020850194506020810190506128fc565b8683101561293e578489015161293a601f89168261284d565b8355505b6001600288020188555050505b505050505050565b5f61295d82611dad565b91507fffffffffffffffffffffffffffffffffffffffffffffffffffffffffffffffff820361298f5761298e6125f9565b5b600182019050919050565b5f81905092915050565b5f6129ae82611e33565b6129b8818561299a565b93506129c8818560208601611e4d565b80840191505092915050565b5f6129df82856129a4565b91506129eb82846129a4565b91508190509392505050565b7f596f752063616e2774207472616e7366657220746865205374617220796f75205f8201527f646f6e2774206f776e0000000000000000000000000000000000000000000000602082015250565b5f612a51602983611e3d565b9150612a5c826129f7565b604082019050919050565b5f6020820190508181035f830152612a7e81612a45565b9050919050565b5f81519050919050565b5f82825260208201905092915050565b5f612aa982612a85565b612ab38185612a8f565b9350612ac3818560208601611e4d565b612acc81611e75565b840191505092915050565b5f608082019050612aea5f830187611f0d565b612af76020830186611f0d565b612b046040830185611e0b565b8181036060830152612b168184612a9f565b905095945050505050565b5f81519050612b2f81611d25565b92915050565b5f60208284031215612b4a57612b49611cf2565b5b5f612b5784828501612b21565b91505092915050565b7f4e487b71000000000000000000000000000000000000000000000000000000005f52601260045260245ffd5b5f604082019050612ba05f830185611f0d565b612bad6020830184611e0b565b939250505056fea2646970667358221220741ed953699c5739d7342416c61d02878d0aed0d2b1b1efd2378f62487483d9e64736f6c63430008140033",
  "immutableReferences": {},
  "source": "// SPDX-License-Identifier: MIT\n\npragma solidity >=0.4.24;\n\nimport \"../node_modules/@openzeppelin/contracts/token/ERC721/ERC721.sol\";\n\n\n\ncontract StarNotaryV2 is ERC721  {\n    \n    uint private count = 0;\n    string private tokenName;\n    string private tokenSymbol;\n    struct Star {\n        string name;\n    }\n    mapping(uint256 => Star) public tokenIdToStarInfo; // mapping of tokenId => Star struct\n    mapping(uint256 => uint256) public starsForSale; //mapping of the tokenId => price\n\n    constructor(string memory name_, string memory symbol_) ERC721(name_, symbol_){\n        tokenName = name_;\n        tokenSymbol = symbol_;\n    }\n\n\n    //create Star using Struct\n    function createStar(string memory _name, uint256 _tokenId)  public {\n        Star memory newStar = Star(_name);  //creating a new star\n        tokenIdToStarInfo[_tokenId] = newStar; //adding the star into the tokenIdToStarInfo mapping using the tokenId\n        _safeMint(msg.sender, _tokenId);\n        count++; //take note of the number of stars created\n    }\n\n    function putStarUpForSale(uint256 _tokenId, uint256 _price) public {\n        require(ownerOf(_tokenId)  == msg.sender, \"You can't sell the Star you don't owned\"); //put star up for sale if its the msg.sender that owns the star\n        starsForSale[_tokenId] = _price;\n    }\n\n\n    function buyStar(uint256 _tokenId) public payable {\n        require(starsForSale[_tokenId] > 0, \"The Star should be up for sale\"); //the price should be more than 0\n        uint256 starCost = starsForSale[_tokenId]; //get the price\n        address payable ownerAddress = payable(ownerOf(_tokenId)); //get the address of owner of the star\n        require(msg.value > starCost, \"You need to have enough Ether\"); //check if the value the user is putting in is higher than the price of the star\n        \n        // Transfer ownership of the star\n        transferFrom(ownerAddress, msg.sender, _tokenId);\n        ownerAddress.transfer(starCost); //transfer the star cost from the buyer to the owner's address\n\n        // Set the price back to 0 after a successful sale\n        starsForSale[_tokenId] = 0;\n\n        if(msg.value > starCost) { //i am checking that, if the money to be sent is more than the starcost, I should send the balance back to the msg.sender\n            address payable buyer = payable(msg.sender); // Convert msg.sender to payable\n            buyer.transfer(msg.value - starCost);\n        }\n    }\n\n    // Implement Task 1 lookUptokenIdToStarInfo\n    function lookUptokenIdToStarInfo (uint _tokenId) public view returns (Star memory) {\n        //1. You should return the Star saved in tokenIdToStarInfo mapping\n         return tokenIdToStarInfo[_tokenId];\n    }\n\n    // Implement Task 1 Exchange Stars function\n    function exchangeStars(uint256 _tokenId1, uint256 _tokenId2) public  {\n        //1. Passing to star tokenId you will need to check if the owner of _tokenId1 or _tokenId2 is the sender\n        address owner1 = ownerOf(_tokenId1);\n        address owner2 = ownerOf(_tokenId2);\n        require(msg.sender == owner1 || msg.sender == owner2, \"You do not own this star\");\n        //2. You don't have to check for the price of the token (star)\n        //3. Get the owner of the two tokens (ownerOf(_tokenId1), ownerOf(_tokenId2)\n        //4. Use _transferFrom function to exchange the tokens.\n        transferFrom(owner1, owner2, _tokenId1); //approve them for each first\n        transferFrom(owner2, owner1, _tokenId2); //approve them for each first\n    }\n\n    // Implement Task 1 Transfer Stars\n    function transferStar(address _to1, uint256 _tokenId) public {\n        //1. Check if the sender is the ownerOf(_tokenId)\n        require(ownerOf(_tokenId)  == msg.sender, \"You can't transfer the Star you don't own\");\n        //2. Use the transferFrom(from, to, tokenId); function to transfer the Star\n        transferFrom(msg.sender, _to1, _tokenId);\n    }\n}",
  "sourcePath": "/Users/femi/Github/starNotary/src/truffle/contracts/StarNotaryV2.sol",
  "compiler": {
    "name": "solc",
    "version": "0.8.20+commit.a1b79de6.Emscripten.clang"
  },
  "schemaVersion": "3.4.3",
  "updatedAt": "2023-12-30T13:42:25.836Z",
  "networkType": "ethereum",
  "devdoc": {
    "errors": {
      "ERC721IncorrectOwner(address,uint256,address)": [
        {
          "details": "Indicates an error related to the ownership over a particular token. Used in transfers.",
          "params": {
            "owner": "Address of the current owner of a token.",
            "sender": "Address whose tokens are being transferred.",
            "tokenId": "Identifier number of a token."
          }
        }
      ],
      "ERC721InsufficientApproval(address,uint256)": [
        {
          "details": "Indicates a failure with the `operator`s approval. Used in transfers.",
          "params": {
            "operator": "Address that may be allowed to operate on tokens without being their owner.",
            "tokenId": "Identifier number of a token."
          }
        }
      ],
      "ERC721InvalidApprover(address)": [
        {
          "details": "Indicates a failure with the `approver` of a token to be approved. Used in approvals.",
          "params": {
            "approver": "Address initiating an approval operation."
          }
        }
      ],
      "ERC721InvalidOperator(address)": [
        {
          "details": "Indicates a failure with the `operator` to be approved. Used in approvals.",
          "params": {
            "operator": "Address that may be allowed to operate on tokens without being their owner."
          }
        }
      ],
      "ERC721InvalidOwner(address)": [
        {
          "details": "Indicates that an address can't be an owner. For example, `address(0)` is a forbidden owner in EIP-20. Used in balance queries.",
          "params": {
            "owner": "Address of the current owner of a token."
          }
        }
      ],
      "ERC721InvalidReceiver(address)": [
        {
          "details": "Indicates a failure with the token `receiver`. Used in transfers.",
          "params": {
            "receiver": "Address to which tokens are being transferred."
          }
        }
      ],
      "ERC721InvalidSender(address)": [
        {
          "details": "Indicates a failure with the token `sender`. Used in transfers.",
          "params": {
            "sender": "Address whose tokens are being transferred."
          }
        }
      ],
      "ERC721NonexistentToken(uint256)": [
        {
          "details": "Indicates a `tokenId` whose `owner` is the zero address.",
          "params": {
            "tokenId": "Identifier number of a token."
          }
        }
      ]
    },
    "events": {
      "Approval(address,address,uint256)": {
        "details": "Emitted when `owner` enables `approved` to manage the `tokenId` token."
      },
      "ApprovalForAll(address,address,bool)": {
        "details": "Emitted when `owner` enables or disables (`approved`) `operator` to manage all of its assets."
      },
      "Transfer(address,address,uint256)": {
        "details": "Emitted when `tokenId` token is transferred from `from` to `to`."
      }
    },
    "kind": "dev",
    "methods": {
      "approve(address,uint256)": {
        "details": "See {IERC721-approve}."
      },
      "balanceOf(address)": {
        "details": "See {IERC721-balanceOf}."
      },
      "getApproved(uint256)": {
        "details": "See {IERC721-getApproved}."
      },
      "isApprovedForAll(address,address)": {
        "details": "See {IERC721-isApprovedForAll}."
      },
      "name()": {
        "details": "See {IERC721Metadata-name}."
      },
      "ownerOf(uint256)": {
        "details": "See {IERC721-ownerOf}."
      },
      "safeTransferFrom(address,address,uint256)": {
        "details": "See {IERC721-safeTransferFrom}."
      },
      "safeTransferFrom(address,address,uint256,bytes)": {
        "details": "See {IERC721-safeTransferFrom}."
      },
      "setApprovalForAll(address,bool)": {
        "details": "See {IERC721-setApprovalForAll}."
      },
      "supportsInterface(bytes4)": {
        "details": "See {IERC165-supportsInterface}."
      },
      "symbol()": {
        "details": "See {IERC721Metadata-symbol}."
      },
      "tokenURI(uint256)": {
        "details": "See {IERC721Metadata-tokenURI}."
      },
      "transferFrom(address,address,uint256)": {
        "details": "See {IERC721-transferFrom}."
      }
    },
    "version": 1
  },
  "userdoc": {
    "kind": "user",
    "methods": {},
    "version": 1
  }
}